:020000040800F2
:10000000A81400204D0A0008D1030008D3030008FB
:10001000D7030008DB030008DF030008000000002E
:10002000000000000000000000000000E3030008E2
:10003000E503000800000000E7030008E9030008EA
:10004000670A0008670A0008670A0008670A0008CC
:10005000670A0008670A0008670A0008670A0008BC
:10006000670A0008670A0008670A0008670A0008AC
:10007000670A0008670A0008670A0008670A00089C
:10008000670A0008670A0008670A0008670A00088C
:10009000670A0008670A0008670A0008670A00087C
:1000A000670A0008670A0008670A0008670A00086C
:1000B000670A00084B070008670A0008670A00087B
:1000C000670A0008670A0008670A0008670A00084C
:1000D000670A0008C1090008670A000869070008E4
:1000E000670A0008670A0008670A0008670A00082C
:1000F000670A0008670A0008670A0008670A00081C
:10010000670A0008670A0008670A0008670A00080B
:10011000670A0008670A0008670A0008670A0008FB
:10012000670A0008670A0008670A0008670A0008EB
:1001300000F002F800F04BF80AA090E8000C8244AE
:100140008344AAF10107DA4501D100F040F8AFF28B
:10015000090EBAE80F0013F0010F18BFFB1A43F0A5
:1001600001031847E453000004540000103A24BF70
:1001700078C878C1FAD8520724BF30C830C144BF0C
:1001800004680C607047000000230024002500264E
:10019000103A28BF78C1FBD8520728BF30C148BFEA
:1001A0000B607047642904F0F583782904F02E84ED
:1001B000002070471FB504F049FE04000020002114
:1001C00004F0DCFE401C60601FBD10B510BD04F0E3
:1001D00061FE1146FFF7EEFF00F04DF804F07FFEE0
:1001E00003B4FFF7F2FF03BC00F090FB10B541F63B
:1001F0001F41092000F07CFA4FF4165000F0C5FAB8
:100200003B480021017003F029FB10BD70B539484F
:10021000008800F40040F8B136480088C0F30D05AE
:1002200035A004F083FB00240DE03948015D394816
:1002300001F056F900BF4021364801F0BFF901280E
:10024000F9D1601C84B2AC42EFDB33A004F06EFB4A
:100250000020284908800DE031A004F067FB3748F2
:10026000006808B9012000E00020344908606420DB
:1002700000F01FFB70BD00F0DFFA4FF4A06000F04B
:1002800005FC4FF4E13000F04FFB00F09FF900F067
:10029000C3F9FFF7ABFF2AA004F048FB33A004F03A
:1002A00045FB23E002F062F9114803F09EFC0020B8
:1002B00000F0CCF90446022C05D136A004F036FB40
:1002C000022003F0E1FA032C05D13AA004F02EFB42
:1002D000002003F0D9FAC82000F0EBFA17480068B4
:1002E00008B9012000E0002014490860DAE70000A6
:1002F0003C000020200000200D0AC4FAB7A2CBCD9C
:10030000B5C4CFFBCFA2CEAA3A0D0A0D0A00000059
:1003100050000020003801400D0A0D0A00000000C6
:10032000C7EBCAE4C8EBCAFDBEDD2CD2D4BBD8B340
:10033000B5BCFCBDE1CAF80A0000000094012342EC
:100340002D2D2D2D2D2D2D2DBBFAD6C7D4C6494FC1
:10035000542D4C4544BDD3C8EBCAB5D1E92D2D2D44
:100360002D2D2D2D2D2D2D0D0A0000004B45593121
:100370003A4169724C696E6BC1ACBDD3C4A3CABDAE
:1003800009204B45595F55503AB8B4CEBB0D0A0D04
:100390000A0000005749464920BDF8C8EB204169D2
:1003A000724C696E6B20C1ACBDD3C4A3CABD0D0A2B
:1003B000000000005749464920B8B4CEBBA3ACC7E3
:1003C000EBD6D8D0C2C5E4D6C3C1ACBDD30D0A00AC
:1003D000704700BFFEE700BFFEE700BFFEE700BFBB
:1003E000FEE7704770477047704700000CB500206B
:1003F000019000906C48006840F480306A490860C1
:1004000000BF6948006800F4003000900198401C6B
:100410000190009818B90198B0F5A06FF1D1624829
:10042000006800F4003010B10120009001E00020CD
:1004300000900098012843D15C48006840F010000B
:100440005A4908600846006820F003000860084622
:10045000006840F002000860534840685249486014
:100460000846406848600846406840F4806048603C
:100470000846406820F47C1048600846406840F414
:10048000E81048600846006840F08070086000BFCF
:100490004548006800F000700028F9D042484068E4
:1004A00020F00300404948600846406840F00200E0
:1004B000486000BF3C48406800F00C000828F9D1B3
:1004C0000CBD10B5FFF792FF10BD10B5364800689F
:1004D00040F001003449086008464068344908404B
:1004E0003149486008460068324908402E49086092
:1004F0000846006820F4802008600846406820F420
:10050000FE0048604FF41F008860FFF7DAFF4FF0ED
:1005100000602949086010BD10B5002100200022AC
:10052000214B5B6803F00C0121B1042906D0082996
:1005300028D107E0214B224C236027E01F4B204CA1
:10054000236023E0184B5B6803F47010164B5B6864
:1005500003F48032022303EB904022B9194B43434A
:10056000174C23600DE0104B5B6803F4003323B19C
:10057000144B4343124C236003E0104B4343104C95
:10058000236003E00D4B0E4C236000BF00BF064B01
:100590005B68C3F303130C4CE15C094B1B68CB4055
:1005A000074C236010BD00000010024000200240F4
:1005B0000000FFF8FFFFF6FE08ED00E000127A00F1
:1005C0000000002000093D000400002008B50121C2
:1005D000482000F0E5FD2020ADF8000010208DF847
:1005E000030003208DF802006946094800F01CFB57
:1005F0002021074800F0C5FB2020ADF80000694627
:10060000044800F011FB2021024800F0BAFB08BDAD
:10061000000C01400018014008B50121442000F001
:10062000BFFD1820ADF8000048208DF80300694692
:100630002C4800F0F9FA0120ADF8000028208DF8D0
:1006400003006946284800F0EFFA08BD10B50446DB
:1006500014B10120254908702448007858B31021AE
:10066000204800F074FB50B108211E4800F06FFBD9
:1006700028B101211C4800F06AFB01281BD10A2087
:1006800000F017F90020194908701021154800F0F2
:100690005EFB08B9012010BD0821124800F057FB8D
:1006A00008B90220F7E701210F4800F050FB0128AC
:1006B00015D10320EFE710210A4800F048FB01287C
:1006C0000DD10821074800F042FB012807D1012184
:1006D000054800F03CFB10B90120044908700020D7
:1006E000D9E7000000180140000801401400002074
:1006F0007FB505460C460121022000F05EFDADF8F5
:100700000850ADF804400020ADF80A00ADF806002E
:1007100001A9144801F080F801221146114801F0A6
:10072000F2FB1D208DF8000000208DF80100032051
:100730008DF8020001208DF80300684600F0ABF947
:100740000121084801F0C4FB7FBD10B50121054817
:1007500001F087FE28B10121024801F093FE01F06B
:100760000AFF10BD0004004008B540F22551304892
:1007700000F03AFF40B12E4800F0B6FEC0B2009043
:100780000121684601F0A0FF08BD10B586B00446FF
:100790000121082000F004FD0121880400F00DFD76
:1007A000234800F061FD4FF48060ADF81000032095
:1007B0008DF8120018208DF8130004A91D4800F0D0
:1007C00033FA4FF40060ADF8100004208DF81300E8
:1007D00004A9184800F028FA00940020ADF804009D
:1007E000ADF80600ADF80800ADF80C000C20ADF82F
:1007F0000A0069460E4800F07AFD01210C4800F01D
:1008000002FE012240F22551094800F008FE27208F
:100810008DF8140002208DF8150003208DF81600C5
:1008200001208DF8170005A800F035F906B010BDBD
:1008300000480040000C014010B56FF0040000F0CB
:1008400074F92E4800682E49B0FBF1F02D4908706C
:100850000846007800EB4001C1EBC0104FF6FF7175
:1008600001EAC0002849088010BD0146254A1278D7
:100870004A434FF0E0235A6100229A611A461269F6
:1008800042F001021A6100BF4FF0E022106900F04F
:1008900001021AB100F48032002AF5D04FF0E022B4
:1008A000126922F001024FF0E0231A6100229A61DE
:1008B00070470146144A12884A434FF0E0235A61B8
:1008C00000229A611A46126942F001021A6100BFC1
:1008D0004FF0E022106900F001021AB100F48032FA
:1008E000002AF5D04FF0E022126922F001024FF009
:1008F000E0231A6100229A61704700000000002086
:1009000000127A00160000201800002000BF704777
:1009100000BF4A4A128802F04002002AF9D0C2B24F
:10092000464B1B1D1A80704710B586B00446012146
:1009300044F2040000F034FC4FF40070ADF81400F1
:1009400003208DF8160018208DF8170005A93C48E3
:1009500000F06AF94FF48060ADF8140004208DF8BF
:10096000170005A9364800F05FF925208DF8000032
:1009700003208DF801008DF8020001208DF803009E
:10098000684600F088F801940020ADF80800ADF842
:100990000A00ADF80C00ADF810000C20ADF80E0008
:1009A00001A9264800F0A3FC012240F2255123486A
:1009B00000F035FD0121214800F025FD06B010BDF5
:1009C00010B540F225511D4800F00EFE10B31B4833
:1009D00000F08AFDC4B21B48008800F40040C8B98A
:1009E0001848008800F4804060B10A2C03D0002031
:1009F0001449088020E01348008840F40040114961
:100A0000088019E00D2C06D10E48008840F4804083
:100A10000C49088010E00B480088C0F30D000A491B
:100A20000C5408480088401C064908800846008885
:100A3000C72801DD0020088010BD000000380140FB
:100A40000008014020000020500000200948804795
:100A500009480047FEE7FEE7FEE7FEE7FEE7FEE7A0
:100A6000FEE7FEE7FEE7FEE704480549054A064BB8
:100A700070470000CB04000831010008A8020020E4
:100A8000A8140020A8040020A80400203149014334
:100A9000314A1160704770B5002100230F22C478DD
:100AA00004B32D4C246804F4E064C4F5E064210A26
:100AB000C1F10403CA40447804FA03F18478144075
:100AC00021430901254C0678A155047804F01F053F
:100AD0000124AC4005786D11AD0005F1E025C5F8A5
:100AE000004109E0047804F01F050124AC401C4DCE
:100AF0000678761145F8264070BD1A4A0A4002432E
:100B0000154B1B1F1A60704739B1134A121D12682A
:100B10000243114B1B1D1A6006E00F4A121D12689A
:100B200082430D4B1B1D1A607047042808D14FF0FB
:100B3000E021096941F004014FF0E022116107E072
:100B40004FF0E021096921F004014FF0E02211612A
:100B5000704700000000FA050CED00E000E400E042
:100B600080E100E080FFFF1F10B50446CC488442BE
:100B700008D10121042000F02DFB0021042000F009
:100B800029FB46E0C748844208D10121082000F033
:100B900021FB0021082000F01DFB3AE0C2488442FE
:100BA00008D10121102000F015FB0021102000F0D9
:100BB00011FB2EE0BD48844208D10121202000F025
:100BC00009FB0021202000F005FB22E0B848844208
:100BD00008D10121402000F0FDFA0021402000F062
:100BE000F9FA16E0B348844208D10121802000F0D0
:100BF000F1FA0021802000F0EDFA0AE0AE488442CC
:100C000007D10121801500F0E5FA0021A01500F0C0
:100C1000E1FA10BD10B50121084600F0DBFA002111
:100C2000012000F0D7FA10BD2DE9F0410246002561
:100C30000026002000230024002791F803C00CF0B8
:100C40000F0591F803C00CF0100CBCF1000F03D09D
:100C500091F802C04CEA050591F800C0BCF1000F04
:100C600031D0146800202BE04FF0010C0CFA00F397
:100C7000B1F800C00CEA03069E4220D183004FF079
:100C80000F0C0CFA03F7BC4305FA03FC4CEA04040E
:100C900091F803C0BCF1280F06D14FF0010C0CFAFB
:100CA00000FCC2F814C00AE091F803C0BCF1480F80
:100CB00005D14FF0010C0CFA00FCC2F810C0401C2A
:100CC0000828D1D31460B1F800C0BCF1FF0F34DDA7
:100CD000546800202EE000F1080C4FF0010808FADB
:100CE0000CF3B1F800C00CEA03069E4221D1830048
:100CF0004FF00F0C0CFA03F7BC4305FA03FC4CEA67
:100D0000040491F803C0BCF1280F05D100F1080CD0
:100D100008FA0CF8C2F8148091F803C0BCF1480F2F
:100D200007D100F1080C4FF0010808FA0CF8C2F8DE
:100D30001080401C0828CED35460BDE8F0814FF6E7
:100D4000FF710180022181700421C1707047024649
:100D5000002093680B400BB1012000E00020704799
:100D60000146886880B2704702460020D3680B4075
:100D70000BB1012000E0002070470146C86880B236
:100D8000704701617047416170470AB1016100E03D
:100D900041617047C16070474FF480320A438261FD
:100DA0008161826182698269704702460020434BFB
:100DB00018684FF68073184040EA021008433F4B12
:100DC000186070473E49C8617047F0B50A46002375
:100DD00000240021002500F00046B6F1004F02D1AA
:100DE000364EF16901E0354E7168C0F3034583B2B8
:100DF00000F44016B6F5401F08D121F070612F4E67
:100E0000766826F070662D4F7E6012E000F4801642
:100E1000B6F5801F06D1032606FA05F4A14341F07A
:100E2000706106E0460D360103FA06F6B14341F063
:100E3000706122B1460D360103FA06F6314300F027
:100E40000046B6F1004F02D11C4EF16101E01B4E8D
:100E50007160F0BD30B500228B071C0F0F2303FA21
:100E600004F2164B08338C1053F824309343134C80
:100E700008348D1044F8253023468C1053F8243064
:100E80008C07240F00FA04F423430C4C08348D1013
:100E900044F8253030BD0A49DC3108607047000055
:100EA00000080140000C0140001001400014014006
:100EB00000180140001C01400020014000000140DA
:100EC00000002042DF48006840F00100DD49086072
:100ED00008464068DC490840DA494860084600682E
:100EE000DA490840D74908600846006820F48020A5
:100EF00008600846406820F4FE0048604FF41F0078
:100F000088607047CF49096821F48031CD4A11606B
:100F10001146096821F480211160B0F5803F03D0AB
:100F2000B0F5802F0ED106E0C649096841F4803142
:100F3000C44A116007E0C349096841F4A021C14ACD
:100F4000116000E000BF00BF704710B501460022ED
:100F5000002300204A11012A02D1BA4C236806E07E
:100F6000022A02D1B74C236A01E0B64C636A01F051
:100F70001F02012494401C400CB1012000E000201D
:100F800010BD38B5002000900024002500BF31209E
:100F9000FFF7DBFF05460098401C00900098B0F575
:100FA000A06F01D0002DF2D03120FFF7CEFF08B1A5
:100FB000012400E00024204638BD01460020A14A5B
:100FC000106820F0F80040EAC10010607047A049A6
:100FD00008607047024600209A4B586820F47C1045
:100FE00042EA01031843974B5860704798490866D6
:100FF000704701460020934A506820F003000843E0
:10100000506070478F48406800F00C007047014600
:1010100000208C4A506820F0F00008435060704770
:1010200001460020874A506820F4E0600843506081
:10103000704701460020834A506820F4605040EA1F
:10104000C1005060704729B17E4A527A02437D4BFD
:101050005A7204E07B4A527A82437A4B5A72704742
:101060007B49D8310860704701460020754A5068B6
:1010700020F440400843506070470021714A2032FC
:101080001170704A82F82010012802D004280AD179
:1010900004E001216B4A2032117005E00521694A04
:1010A0002032117000E000BF00BF7047694908603E
:1010B00070476449096A0143624A11627047654991
:1010C00044390860704730B5002100220024002315
:1010D0005C4D6D6805F00C0121B1042905D008298B
:1010E00023D105E05C4D056022E05B4D05601FE00B
:1010F000544D6D6805F47012524D6D6805F48034DE
:10110000022505EB92421CB9544D554305600BE096
:101110004C4D6D6805F400351DB1504D55430560CB
:1011200002E04D4D5543056002E04B4D056000BFA8
:1011300000BF444D6D6805F0F0010909484D6B5C36
:101140000568DD4045603F4D6D6805F4E061090AC2
:10115000434D6B5C4568DD4085603A4D6D6805F434
:101160006051C90A3E4D6B5C4568DD40C560354D38
:101170006D6805F44041890B3A4D6B5CC568B5FB61
:10118000F3F5056130BD29B12E4A526902432D4B5A
:101190005A6104E02B4A526982432A4B5A617047D4
:1011A00029B1284A92690243264B9A6104E0254AF4
:1011B00092698243234B9A61704729B1214AD269CF
:1011C0000243204BDA6104E01E4AD26982431D4B80
:1011D000DA61704729B11B4AD2680243194BDA60C1
:1011E00004E0184AD2688243164BDA60704729B18E
:1011F000144A12690243134B1A6104E0114A12693E
:101200008243104B1A617047124940390860704799
:101210000F49C86470470B49C87170470948406A54
:1012200040F0807007494862704701460020054A37
:1012300092680A400AB1012000E00020704701498D
:1012400088727047001002400000FFF8FFFFF6FEB2
:10125000000042428004424200127A0000093D0030
:10126000220000203200002010B50446FB488442D2
:1012700009D101218803FFF7ADFF00214FF4804021
:10128000FFF7A8FF32E0F648844209D10121480463
:10129000FFF7ADFF00214FF40030FFF7A8FF25E076
:1012A000F048844209D101218804FFF7A0FF002102
:1012B0004FF48020FFF79BFF18E0EB48844209D1F0
:1012C0000121C804FFF793FF00214FF40020FFF72E
:1012D0008EFF0BE0E548844208D101210805FFF7A5
:1012E00086FF00214FF48010FFF781FF10BD2DE92C
:1012F000F04786B005460E460024A24600BFA14630
:101300000027B08900B100BF2F462C8A4CF6FF7031
:101310000440F08804432C82AC894EF6F31004405C
:10132000B08831890843718908430443AC81AC8A91
:101330004FF6FF400440B0890443AC8201A8FFF798
:10134000C2FEC648874202D1DDF810A001E0DDF8F8
:101350000CA0A88900F4004040B10AEBCA0000EBE1
:101360000A1031684900B0FBF1F807E00AEBCA0047
:1013700000EB0A1031688900B0FBF1F86420B8FB7B
:10138000F0F004012009642101FB1089A88900F410
:10139000004040B1322000EBC900B0FBF1F000F09A
:1013A0000700044308E0322000EB09106421B0FB81
:1013B000F1F000F00F0004432C8106B0BDE8F08787
:1013C0004FF41651016000218180C18001810C2100
:1013D000418100218181704710B502460020108AAA
:1013E0004FF2FF0318400B884C8823438C8823431B
:1013F000CC8823431843108210BD00210180418016
:101400008180C180704721B1828942F4005282817B
:1014100004E082894DF6FF731A4082817047F0B56F
:101420000346002400260025002040F66A17B94232
:1014300000D100BF1846C1F3421401F01F06012776
:1014400007FA06F5012C01D10C3004E0022C01D181
:10145000103000E014301AB107682F43076002E033
:101460000768AF430760F0BD1AB1838A0B438382DC
:1014700002E0838A8B4383827047028A4FF6F073BF
:101480001A400282028A0A430282704782894FF21E
:10149000FF731A40828182890A438281704721B199
:1014A000828942F00202828104E082894FF6FD7354
:1014B0001A4082817047028A4FF6DF731A40028217
:1014C000028A0A430282704721B1028A42F48042B2
:1014D000028204E0028A4BF6FF731A4002827047D0
:1014E000C1F308028280704701468888C0F3080073
:1014F0007047818941F0010181817047028BD2B22E
:101500000283028B42EA012202837047028B02F4BB
:101510007F420283028B0A430283704721B1828A91
:1015200042F02002828204E0828A4FF6DF731A4082
:101530008282704721B1828A42F01002828204E0E6
:10154000828A4FF6EF731A408282704721B1828AF5
:1015500042F00802828204E0828A4FF6F7731A4052
:101560008282704721B1828942F40042828103E085
:101570008289C2F30E028281704721B1828A42F4CD
:101580000062828204E0828A4FF2FF731A408282F4
:101590007047828A4FF6FB731A408282828A0A431E
:1015A0008282704721B1828A42F00202828204E084
:1015B000828A4FF6FD731A408282704702460020ED
:1015C000B1F5007F00D100BF13880B400BB10120A3
:1015D00000E00020704701F40072B2F5007F00D1F6
:1015E00000BFCA430280704770B502460024002342
:1015F0000025002040F66A16B14200D100BFC1F3B9
:10160000421501F01F03012606FA03F3012D02D152
:101610009689334006E0022D02D1168A334001E05C
:10162000968A33400C12012606FA04F416883440D8
:1016300013B10CB1012000E0002070BD10B50022F4
:10164000002340F66A14A14200D100BF0A1201240F
:101650009440A3B2DC43048010BD00000038014078
:101660000044004000480040004C00400050004052
:1016700010B50446FE48844208D10121C014FFF78A
:10168000A9FD0021E014FFF7A5FDC4E0B4F1804FEF
:1016900008D101210846FFF7AAFD00210120FFF72C
:1016A000A6FDB8E0F348844208D101210220FFF7EB
:1016B0009EFD00210220FFF79AFDACE0EE48844237
:1016C00008D101210420FFF792FD00210420FFF73B
:1016D0008EFDA0E0E948844208D101210820FFF7EF
:1016E00086FD00210820FFF782FD94E0E448844253
:1016F00008D101211020FFF77AFD00211020FFF70B
:1017000076FD88E0DF48844208D101212020FFF7E0
:101710006EFD00212020FFF76AFD7CE0DA4884425C
:1017200008D101214014FFF755FD00216014FFF797
:1017300051FD70E0D548844209D10121C804FFF76A
:1017400049FD00214FF40020FFF744FD63E0D0483D
:10175000844209D101210805FFF73CFD00214FF427
:101760008010FFF737FD56E0CA48844209D10121B5
:101770004805FFF72FFD00214FF40010FFF72AFD69
:1017800049E0C548844208D101214020FFF72FFDE0
:1017900000214020FFF72BFD3DE0C048844208D1E6
:1017A00001218020FFF723FD00218020FFF71FFD8E
:1017B00031E0BB48844208D101218015FFF717FDB5
:1017C0000021A015FFF713FD25E0B648844209D19A
:1017D00001210804FFF7FEFC00214FF48030FFF7E1
:1017E000F9FC18E0B048844209D101214804FFF710
:1017F000F1FC00214FF40030FFF7ECFC0BE0AB48AC
:10180000844208D101218804FFF7E4FC00214FF451
:101810008020FFF7DFFC10BD00220288944B984225
:101820000ED0994B98420BD0B0F1804F08D0914B1D
:10183000984205D0904B984202D0904B984204D1E8
:101840004FF68F731A404B881A438D4B984207D03E
:101850008C4B984204D04FF6FF431A40CB881A4372
:1018600002808B8883850B880385814B98420BD03F
:10187000854B984208D08B4B984205D08A4B9842B2
:1018800002D08A4B984201D10B7A038601238382CE
:10189000704770B5002400220023058C4FF6FE76B9
:1018A00035400584028C8388048B4FF68F752C405D
:1018B000B51E2C400D882C43751E2A400D892A43E5
:1018C0004D882A436A4DA8420BD06F4DA84208D0DC
:1018D000744DA84205D0744DA84202D0734DA84261
:1018E00013D14FF6F7752A404D892A434FF6FB7501
:1018F0002A408D882A434FF6FF652B404FF6FF554F
:101900002B408D892B43CD892B4383800483CD8845
:101910008586028470BD70B5002400220023058CEA
:101920004FF6EF7635400584028C8388048B48F6A9
:10193000FF752C404FF6FF452C400D884FF6FF7683
:1019400006EA05252C434FF6DF752A400D8906EA85
:1019500005152A434D8806EA05152A43444DA84239
:1019600002D0494DA8421DD14FF67F752A404D89BE
:101970004FF6FF7606EA05152A434FF6BF752A4053
:101980008D8806EA05152A434FF6FF352B404FF2A6
:10199000FF752B408D8906EA85052B43CD8906EA24
:1019A00085052B4383800483CD880587028470BD21
:1019B00070B5002400220023058C4FF6FF663540E9
:1019C0000584028C8388848B4FF68F752C404FF6EC
:1019D000FC752C400D882C434FF6FF552A400D898D
:1019E0004FF6FF7606EA05252A434D8806EA0525C7
:1019F0002A431F4DA84202D0234DA8421DD14FF2C9
:101A0000FF752A404D894FF6FF7606EA05252A43E1
:101A10004FF6FF352A408D8806EA05252A434EF603
:101A2000FF752B404DF6FF752B408D8906EA051595
:101A30002B43CD8906EA05152B4383808483CD880B
:101A40008587028470BD70B5002200230024058CB8
:101A50004EF6FF7635400584038C8488828B48F6E9
:101A6000FF752A404FF6FF452A400D8820E0000010
:101A7000002C01400004004000080040000C004021
:101A8000001000400014004000340140004C0140B0
:101A9000005001400054014000180040001C00406C
:101AA0000020004000400140004401400048014047
:101AB0004FF6FF7606EA05252A434DF6FF752B40C3
:101AC0000D8906EA05352B434D8806EA05352B437B
:101AD000FA4DA84202D0FA4DA84208D14BF6FF7544
:101AE0002C408D894FF6FF7606EA85152C438480BD
:101AF0008283CD88A0F84050038470BD828B4FF262
:101B0000FF331A408283828B4FF6FF7303EA01236F
:101B10001A4382837047F0B50C4615460022002117
:101B20000026078C4EF6FF7C07EA0C070784828BA1
:101B3000018C4FF6FF7707EA043640F6FF473A403C
:101B40004FF6FF7707EA05273A434FF6FF7707EA94
:101B500003373A43D94FB8420ED0D94FB8420BD0D1
:101B6000B0F1804F08D0D74FB84205D0D64FB84219
:101B700002D0D64FB84206D14DF6FF77394046F431
:101B80008057394305E047F6FF57394044F4805702
:101B9000394382830184F0BD828B4FF6F3731A4080
:101BA0008283828B0A4382837047F0B50C461546C8
:101BB000002200210026078C4FF6FF6C07EA0C0775
:101BC0000784828B018C4FF6FF7707EA04264FF6D5
:101BD0000C773A404FF6FF7707EA03172F433A4353
:101BE000B64FB8420ED0B64FB8420BD0B0F1804FCE
:101BF00008D0B44FB84205D0B34FB84202D0B34F6B
:101C0000B84206D14FF6FF57394046F48077394342
:101C100005E04FF2FF57394044F48077394382831F
:101C20000184F0BD028B4FF2FF331A400283028B16
:101C30004FF6FF7303EA01231A4302837047F0B59E
:101C40000C461546002200210026078C4FF6EF7C3B
:101C500007EA0C070784028B018C4FF6FF7707EA2F
:101C6000041640F6FF473A404FF6FF7707EA03377E
:101C70003A434FF6FF7707EA05273A438F4FB842BA
:101C80000ED08F4FB8420BD0B0F1804F08D08D4F9F
:101C9000B84205D08C4FB84202D08C4FB84206D122
:101CA0004FF6DF77394046F01007394305E04FF62D
:101CB0005F77394044F01007394302830184F0BD57
:101CC000028B4FF6F3731A400283028B0A4302839E
:101CD0007047F0B50C46154600220021068C4FF6E1
:101CE000FE773E400684028B018C4FF60C76324024
:101CF0007E1C06EA03162E433243704EB0420ED0CD
:101D00006F4EB0420BD0B0F1804F08D06D4EB04254
:101D100005D06D4EB04202D06C4EB04206D14FF6A7
:101D2000FD76314044F00106314305E04FF6F5768B
:101D3000314044F00106314302830184F0BD70B5A7
:101D400005460C465D4885420ED05D4885420BD065
:101D5000B5F1804F08D05B48854205D05A4885428E
:101D600002D05A48854200D100E000BF208850B917
:101D70002389A28861882846FFF7ABFFE1882846BF
:101D8000FFF79EFF25E0208804280AD12389A28836
:101D900061882846FFF753FFE1882846FFF742FF96
:101DA00017E0208808280AD12389A288618828465C
:101DB000FFF7FBFEE1882846FFF7EEFE09E02389E6
:101DC000A28861882846FFF7A6FEE1882846FFF72B
:101DD00095FE70BD2DE9F04105460C460026012711
:101DE000608808B9022600E00026A088012801D1F9
:101DF000022700E001272088A0B92389A2886188F2
:101E00002846FFF766FFE1882846FFF759FF238938
:101E10003A4631462846FFF712FFE1882846FFF789
:101E200001FF13E02389A28861882846FFF707FF96
:101E3000E1882846FFF7F6FE23893A4631462846D0
:101E4000FFF747FFE1882846FFF73AFFBDE8F0813A
:101E50000A884B881A438B881A43CB881A430B890C
:101E60001A434B891A438B891A43A0F844207047C0
:101E70004FF6FF71818000210180C1804180017295
:101E800070470021018041808180C18001814181B2
:101E90008181C181704700210180418001218180C1
:101EA0000021C18001817047002101804180818033
:101EB000C18001814181818170470000002C014077
:101EC000003401400004004000080040000C0040C5
:101ED00021B1028842F00102028004E002884FF63C
:101EE000FE731A400280704731B1B0F8442042F4CA
:101EF0000042A0F8442005E0B0F84420C2F30E02EE
:101F0000A0F8442070471AB183890B43838102E013
:101F100083898B43838170478182704741EA020342
:101F2000A0F8483070471AB183890B43838102E0DF
:101F300083898B438381704701894FF6F872114082
:101F4000018170470A46002101894FF68F731940BD
:101F500011430181704730B504460D46294620469D
:101F6000FFF7F0FF208940F00700208130BD2DE908
:101F7000F04104460D4616461F46602D06D13B46ED
:101F8000012231462046FFF75AFE05E03B4601227A
:101F900031462046FFF79DFE29462046FFF7D2FF37
:101FA000208940F007002081BDE8F08130B50C4663
:101FB00000210189C9B24FF6FF7505EA03251543D3
:101FC00025432943018130BD2DE9F04105460E46E8
:101FD00017469846002443463A4631462846FFF7BE
:101FE000E5FF2C894FF6F870044044F007044FF6E3
:101FF0008F70044044F070042C81BDE8F081F0B58E
:1020000004460D4616461F463B46324629462046A4
:10201000FFF7CCFF208940F480402081F0BD01858E
:10202000828270470A46002101884FF68F7319405B
:10203000114301807047F0B50C4615461E4600213D
:10204000002200230189028B038C4FF6F877394078
:1020500021434FF6FC473A4040F201173A434FF60E
:10206000DD773B404FF6FF7707EA06172F433B43E8
:10207000018102830384F0BD0A460021018B4FF6E3
:102080008F7319401143018370470A460021018B69
:1020900048F6FF7319404FF6FF7303EA0223194312
:1020A000018370470A460021818B4FF68F731940D8
:1020B0001143818370470A460021818B48F6FF73E4
:1020C00019404FF6FF7303EA0223194381837047D7
:1020D00021B1028842F08002028004E002884FF6BB
:1020E0007F731A400280704721B1828842F0040257
:1020F000828004E082884FF6FB731A40828070472A
:1021000021B1828842F00802828004E082884FF682
:10211000F7731A408280704721B1828842F0010231
:10212000828004E082884FF6FE731A4082807047F6
:102130000A460021018B4FF6F773194011430183C2
:1021400070470A460021018B4FF2FF7319404FF68A
:10215000FF7303EA02231943018370470A460021F3
:10216000818B4FF6F77319401143818370470A46FC
:102170000021818B4FF2FF7319404FF6FF7303EA82
:1021800002231943818370470A460021018B4FF6D1
:10219000FB7319401143018370470A460021018BEC
:1021A0004FF6FF3319404FF6FF7303EA022319433A
:1021B000018370470A460021818B4FF6FB7319405B
:1021C0001143818370470A460021818B4FF6FF330C
:1021D00019404FF6FF7303EA0223194381837047C6
:1021E0000A460021018B4FF67F731940114301838A
:1021F00070470A460021018BC1F30E014FF6FF73B1
:1022000003EA02231943018370470A460021818BA8
:102210004FF67F7319401143818370470A460021AE
:10222000818BC1F30E014FF6FF7303EA02231943BA
:10223000818370470A460021018C4FF6FD731940D7
:102240001143018470470A460021018C4FF6F77351
:1022500019401143018470470A460021018C4FF652
:10226000DF7319404FF6FF7303EA02131943018429
:1022700070470A460021018C4FF67F7319404FF6D4
:10228000FF7303EA02131943018470470A460021D1
:10229000018C4FF6FF5319404FF6FF7303EA0223F8
:1022A0001943018470470A460021018C4FF2FF73E5
:1022B00019404FF6FF7303EA022319430184704764
:1022C0000A460021018C4DF6FF7319404FF6FF734B
:1022D00003EA023319430184704730B50023012417
:1022E0008C40A3B2048C9C430484048C02FA01F554
:1022F000ADB22C43048430BD30B5002304248C409F
:10230000A3B2048C9C430484048C02FA01F5ADB2A0
:102310002C43048430BD70B50346002000241846C9
:10232000183001258D40ACB21D8CA5431D8409B128
:10233000082909D100EB6100056825F070050560EA
:102340000568154305600EE00D1FC5F34E052844D2
:10235000056825F4E045056005684FF6FF7606EA56
:1023600002263543056070BD21B1028842F00202A9
:10237000028004E002884FF6FD731A400280704725
:1023800021B1028842F00402028004E002884FF684
:10239000FB731A400280704721B1828842F08002AC
:1023A000828004E082884FF67F731A4082807047F3
:1023B00002884FF6F7731A40028002880A430280AF
:1023C000704782884FF68F731A40828082880A4352
:1023D0008280704702894FF6F8731A4002810289A1
:1023E0000A430281704702894FF67F731A400281C7
:1023F00002890A4302817047818470478185704752
:10240000818670470187704781877047A0F8401028
:10241000704702884FF6FF431A40028002880A4341
:10242000028070470146888E70470146088F7047CA
:102430000146888F70470146B1F840007047014659
:10244000888C70470146088D704702460020138A29
:102450000B400BB1012000E000207047CA4302820C
:10246000704730B50246002000230024158A05EA93
:102470000103958905EA010413B10CB1012000E0C4
:10248000002030BDCA430282704700002DE9FF5F83
:1024900006460D4693464FF000082F46A9462C46A7
:1024A000AA4606B125B94FF0FF3004B0BDE8F09F51
:1024B0004FF0000855E0701C10F8080012284AD2AE
:1024C000DFE800F01D1E1F49492021222349494908
:1024D00049242E3D2A0938784F490870084601786A
:1024E0004EA002F023FA4C480078012803D10020C6
:1024F0004F49086002E001204D4908602CE02BE0C4
:102500002AE029E028E027E026E025E099F80010FD
:1025100048A002F00BFA1FE049A002F007FA1BE006
:10252000A17962792379A068CDE90032CDE9021062
:10253000E378A278218847A002F0F8F90CE050A0D7
:1025400002F0F4F953A002F0F1F99AF8001055A046
:1025500002F0ECF900E000BF00BF08F1010000F05C
:10256000FF0830784045A6DC00209EE770472A48E7
:1025700000210170704750480068401C4E490860B7
:1025800070474D4800687047012080F3138800BFF2
:1025900000BF4A48006800F4E06049490843001D54
:1025A00046490860BFF3408F00BF00BFFEE700B59B
:1025B000FFF7E1FF00BD08B500200090012168464B
:1025C00000F082F808BD70B505460E4600240DB92E
:1025D000601E70BD00241BE0295D3A48FEF780FFB5
:1025E00000BF40213748FEF7E9FF0028F9D0022C50
:1025F0000DD3285DFF280AD155213248FEF770FF20
:1026000000BF40212F48FEF7D9FF0028F9D0641CF5
:10261000B442E1D33046DCE73C0000204576743A12
:10262000204556454E545F4C4544202564200A0001
:1026300094812142525353492025640A000000002E
:102640005452414E53504152454E545F44415441BF
:10265000200A0000574946495F4E5450203A205BFB
:1026600025642D25642D256420253032643A2530DB
:1026700032643A253032645D5B25645D200A0000D7
:102680004D4F44554C4520494E464F202E2E2E0A84
:1026900000000000574946204D4F44554C45202E20
:1026A0002E2E0A006D6F64756C6554797065203A42
:1026B000205B25645D200A00380000200CED00E05E
:1026C0000000FA050048004070B504460D4600269B
:1026D00024B9F0A002F02AF9701E70BD2A462146E6
:1026E000F44802F0C5F80646AE4205D0F2A002F06A
:1026F0001DF94FF0FF30F0E73046EEE710B5044625
:102700002CB9F4A002F012F94FF0FF3010BD0020F8
:1027100020606060FF20207060700020F6E770B5D8
:1027200004460D462CB9F6A002F000F94FF0FF3038
:1027300070BD1E21F84802F0C7FA2A462146F64825
:10274000801C02F04AFAF4483938A0F851500121AF
:1027500080F83A10FFF715FFEF493939C1F85300F7
:102760000020E5E7F8B505460C4616460DB104B164
:102770002EB9EAA002F0DAF84FF0FF30F8BD287861
:1027800000F0010098B111212278601C815420785A
:10279000401C207001206B1C02460021009008465E
:1027A00001F02BFF08B1012000E000203070002074
:1027B000E4E72DE9F04104460D460026002704B168
:1027C00035B9E1A002F0B2F84FF0FF30BDE8F0817A
:1027D000FFF7D7FE074628782178884203D0E4A087
:1027E00002F0A4F80126012E03D1FFF7CAFEE54945
:1027F00008603046EAE738B505460C4605B12CB905
:10280000E1A002F093F84FF0FF3038BD00202070B7
:1028100028782346012200210090084601F04EFF4F
:102820000121204601F0E4FD0020EEE72DE9F0470C
:1028300080460C4617461D46089E94F800900CB141
:1028400005B136B9DCA002F071F84FF0FF30BDE8F9
:10285000F087B8F1000F53D11321AF481E3002F0BA
:1028600033FAB9F1010F06D0B9F1020F12D0B9F164
:10287000050F43D122E0A84A6B32A2F14D01601C42
:10288000FFF770FF0120A4493939087000250020A6
:10289000306034E0A0496A31881CFFF7ACFF48B9CA
:1028A0009D48393890F8A3006870032028700220F2
:1028B000306002E04FF0FF30C9E720E07A1E611C73
:1028C0009548223802F089F9781E93493939C1F8C0
:1028D0002D0010219048393890F8572058308154F5
:1028E000583890F85700401C8B49393981F8570007
:1028F0000320087000250020306000E000BF00BF0A
:102900000020A4E72DE9F04F8DB006468B46174610
:10291000994600200C9082468046002501ACBBF110
:10292000000F06D1B0A002F001F8681E0DB0BDE89E
:10293000F08FB9F1010F06D196F8088008F1060072
:10294000384485B201E0781D85B22B4642463946AF
:10295000ABA001F0EBFFFF2004F8010B04F8010B22
:10296000281204F8010B04F8015B3079401C04F8CC
:10297000010B707904F8010B002004F8010B04F836
:10298000019B4FF0080AB9F1010F0DD104F8018B3A
:102990000AF1010A01A901EB0A00424606F1090108
:1029A00002F01BF9C244444437B101A901EB0A000B
:1029B0003A46594602F011F9291D01A801F04CFBD5
:1029C0000146E81C01AA1154291D01A8FFF7FBFDCF
:1029D0000C900C98002806DA93A00C9901F0A6FF41
:1029E0006FF00100A2E70020A0E7FEB505460E4605
:1029F0001746002426B992A001F098FF601EFEBD84
:102A00006846FFF77BFE05208DF804004248393800
:102A100090F83110D0F83100401C3F4A393AC2F8E2
:102A20003100C8B28DF805008DF80850072001F07C
:102A300026FBADF802003A4631460DF1090002F0DE
:102A4000CCF80B21684601F007FB8DF80A000B213A
:102A50006846FFF7B8FD0446002C06DA214682A03E
:102A600001F064FF6FF00100C9E70B216846FFF732
:102A700056FE2046C3E770B50446FFF782FD0546C3
:102A800025496C312046FFF794FE012800D1F9E07A
:102A90000AE100004552523A2067697A5075744441
:102AA0006174612062756620697320656D70747948
:102AB000200A00000C0200204552523A204661696B
:102AC0006C656420746F2072625772697465200AA5
:102AD000000000004552523A2067697A50726F74C4
:102AE0006F636F6C48656164496E697420686561E5
:102AF0006420697320656D707479200A00000000FD
:102B00004552523A206461746120697320656D708A
:102B10007479200A000000005101002067697A449E
:102B2000617461506F696E74324576656E742045CC
:102B300072726F72202C20496C6C6567616C20503A
:102B40006172616D0A00000067697A436865636BB2
:102B50005265706F7274204572726F72202C20491A
:102B60006C6C6567616C20506172616D0A000000D9
:102B700076616C75654C4544204368616E67656499
:102B80000A0000004000002067697A4461746150C7
:102B90006F696E7473325265706F727444617461E0
:102BA000204572726F72202C20496C6C6567616CD5
:102BB00020506172616D0A0067697A50726F746F9C
:102BC000636F6C49737375656450726F636573737B
:102BD000204572726F72202C20496C6C6567616CA5
:102BE00020506172616D0A005B4552525D20206485
:102BF000617461204973204E756C6C200A000000DE
:102C00006C656E203D202564202C20734469644C43
:102C1000656E203D202564202C646174615F6C65C5
:102C20006E203D2025640A007561727420777269F8
:102C30007465206572726F72202564200A0000009E
:102C400067697A5265706F7274446174612045726D
:102C5000726F72202C20496C6C6567616C2050612A
:102C600072616D0A000000004552523A207561728F
:102C700074207772697465206572726F72202564A2
:102C8000200A0000F3A001F051FEF8492046FFF7AA
:102C9000B2FD20B90122F5490420FFF7A6FEF34852
:102CA000A338217880F8A510F148B5FBF0F100FBBE
:102CB0001150B8B9EF480068A84213D0EEA001F057
:102CC00035FEEA492046FFF796FD20B90122E74983
:102CD0000420FFF78AFEE548A338217880F8A51084
:102CE000E448056070BD2DE9FE4F80460E4617464C
:102CF0004FF0000B002002908146824600253446AA
:102D00000090B8F1000F01D006B137B9E0A001F092
:102D10000DFE4FF0FF30BDE8FE8F404601F02CFD68
:102D200000F0FF0ABAF1000F02D14FF0FF30F2E7D6
:102D30004FF000095DE0012201A9404601F047FD86
:102D40008346BBF1000F52D0DD480078FF281FD129
:102D50009DF80400FF281BD1DA48007848B9FF200D
:102D6000207060700220D84908800120D549087081
:102D700034E0D5480088042830DDD3480088A842D4
:102D80002CD0FF20207060700220CF49088025E001
:102D9000CB480078FF2803D19DF8040055281DD0AA
:102DA000C8480078012819D19DF80400C64909884F
:102DB0006054C5480088401CC34908800846008804
:102DC00004280BDD0094009C608801F058F9001D78
:102DD00085B2BD480088A84200D10CE09DF80400EF
:102DE000B7490870B9480078401CB849087009F123
:102DF0000109D1459FDB00BFB3480088042823DDCB
:102E0000B1480088A8421FD1AF480188204601F090
:102E100023F90290AC480088401E215C0298814250
:102E20000FD12A462146304601F0D7FE3D800020D2
:102E3000A4490870A4490880A4490870A0490870F2
:102E400069E76FF0010066E7012064E710B5002430
:102E50008648A33890F83A0000B910BD9CA001F054
:102E600065FD8248A338B0F851103B30FFF7ABFB4B
:102E700004467E48A338B0F85100A04202D09CA07E
:102E800001F054FDFFF77DFB7849A339C1F85300E9
:102E900000BFE2E770B50446744D683D34B9AFF247
:102EA000A03001F043FD4FF0FF3070BD2879401C89
:102EB0002179884204D11E216C486A3801F004FF50
:102EC0000020F2E73EB50446002524B98EA001F0AB
:102ED0002DFD681E3EBD20680090606801909DF841
:102EE0000400401CC0B28DF80400052001F0C7F8B2
:102EF000ADF802000921684601F0AEF88DF808002F
:102F000009216846FFF75FFB0546002D04DA2946D4
:102F1000AFF2AC2001F00AFD2846DBE710B55348BC
:102F2000A33890F83A0001282CD15048A33890F8E3
:102F30003900022821DAFFF724FB4C49A339D1F8E4
:102F40005310401AC8281DD9FFF71BFB04464748F9
:102F5000A33890F83930D0F85320214675A001F0FD
:102F6000E5FCFFF773FF4148A33890F83900401C97
:102F70003E49A33981F8390004E01E213B486A38F4
:102F800001F0A2FE10BD30B59DB0044600252CB95D
:102F900072A001F0CBFC681E1DB030BD6846FFF783
:102FA000ADFB02208DF8040060798DF8050077A153
:102FB00003C9CDE9020178A103C9CDE9040179A1D2
:102FC00003C9CDE908017AA103C9CDE90601202290
:102FD0007AA10AA801F046FE202281A10DF152003B
:102FE00001F0FBFD0020CDF84A00CDF84E009DF821
:102FF00051008DF851009DF8510040F002018DF80C
:103000005110002001F03BF8ADF848006F2001F0AE
:1030100036F8ADF802007321684601F01DF88DF80E
:10302000720073216846FFF7CEFA0546002D04DAD8
:103030002946AFF2CC3001F079FC2846ACE7FEB56A
:1030400004460E46002524B96EA001F06FFC681EF0
:10305000FEBDEDE06368616E6765642C207265708B
:103060006F727420646174610A000000BB0100206B
:10307000C027090044000020496E666F3A203630B0
:103080003053207265706F727420646174610A003D
:1030900067697A50726F746F636F6C4765744F6EB7
:1030A000655061636B6574204572726F72202C20CD
:1030B000496C6C6567616C20506172616D0A00003B
:1030C0004C000020480000204A0000204D00002055
:1030D0005761726E696E673A2074696D656F7574B9
:1030E0002C20726573656E642064617461200A002F
:1030F0004552523A20726573656E64206461746152
:10310000206572726F720A004552523A2067697ADE
:1031100050726F746F636F6C436F6D6D6F6E416350
:103120006B206461746120697320656D707479200F
:103130000A0000005761726E696E673A67697A50DB
:10314000726F746F636F6C526573656E6444617403
:10315000612025642025642025640A0067697A506F
:10316000726F746F636F6C476574446576696365ED
:10317000496E666F204572726F72202C20496C6C0C
:103180006567616C20506172616D0A0030303030CB
:1031900030303034000000003030303030303032E9
:1031A0000000000030333033303030300000000099
:1031B0003033303130313030000000006665353258
:1031C00034663934393966393465323261383637E4
:1031D0006631616431303838643537620000000090
:1031E00035623730393139366439663334306566A3
:1031F000616638303564396438346536643261620A
:103200000000000067697A50726F746F636F6C45DD
:1032100072726F72436D64204572726F72202C203F
:10322000496C6C6567616C20506172616D0A0000C9
:103230006846FFF763FA12208DF8040060798DF874
:103240000500062000F01BFFADF802008DF80860B5
:103250000A21684600F000FF8DF809000A2168463F
:10326000FFF7B1F90546002D04DA2946AFF20860F0
:1032700001F05CFB2846FEBD70B5044625462CB91E
:10328000FCA001F053FB4FF0FF3070BDFE48A96871
:103290000160E9684160298A0181A97C8172A0F1FD
:1032A000A701B1F8A70000F0EAFEF749A739A1F895
:1032B000A700D1F8AF0000F0EFFEF349A739C1F83D
:1032C000AF000E21F048A73890F87D207E30815461
:1032D0007E3890F87D00401CEB49A73981F87D00CD
:1032E000042008700020D0E710B5FFF74AF9044623
:1032F00000BFFFF746F9001BB0F5167FF9D9FFF7BD
:1033000043F910BD10B504462CB9E0A001F00EFB46
:103310004FF0FF3010BD208900F0B1FE2081E7485A
:103320000078C0F38000217AC1F3800188425ED02A
:10333000207AC0F3800000282DD0207A00F0010010
:1033400088B10021D048A73890F86A206B308154AA
:103350006B3890F86A00401CCB49A73981F86A00A5
:10336000D7A001F0E3FA207AC0F3400000283ED055
:103370000121C548A73890F86A206B3081546B381A
:1033800090F86A00401CC049A73981F86A00D4A0AF
:1033900001F0CCFA2BE0207A00F0010088B1002186
:1033A000B948A73890F86A206B3081546B3890F890
:1033B0006A00401CB449A73981F86A00C0A001F036
:1033C000B5FA207AC0F3400088B10221AE48A73890
:1033D00090F86A206B3081546B3890F86A00401C7A
:1033E000A949A73981F86A00C4A001F09FFAB3483F
:1033F0000078C0F3C000217AC1F3C001884230D008
:10340000207AC108AD48007861F3C300AB49087069
:10341000207AC0F3C00090B103219B48A73890F8F0
:103420006A206B3081546B3890F86A00401C9649D2
:10343000A73981F86A00B8A001F078FA11E00421F8
:103440009148A73890F86A206B3081546B3890F817
:103450006A00401C8C49A73981F86A00B6A001F0C7
:1034600065FA96480078C0F30010217AC1F3001184
:10347000884230D0207A01099048007861F3041026
:103480008E490870207AC0F3001090B105217E4863
:10349000A73890F86A206B3081546B3890F86A0036
:1034A000401C7949A73981F86A00ABA001F03EFAC7
:1034B00011E006217448A73890F86A206B308154D7
:1034C0006B3890F86A00401C6F49A73981F86A0090
:1034D000A9A001F02BFA79480078C0F34010217AB6
:1034E000C1F34011884230D0207A410973480078F6
:1034F00061F3451071490870207AC0F3401090B113
:1035000007216148A73890F86A206B3081546B38E6
:1035100090F86A00401C5C49A73981F86A009FA0B6
:1035200001F004FA11E008215748A73890F86A2002
:103530006B3081546B3890F86A00401C5249A739AF
:1035400081F86A009CA001F0F1F95C484078C0F372
:10355000C001607AC0F3C000814230D0607AC108F7
:103560005648407861F3C30054494870607AC0F30C
:10357000C00090B10B214448A73890F86A206B3006
:1035800081546B3890F86A00401C3F49A73981F894
:103590006A0091A001F0CAF911E00C213A48A7385D
:1035A00090F86A206B3081546B3890F86A00401CA8
:1035B0003549A73981F86A008EA001F0B7F93F4874
:1035C0004078C0F30011607AC0F30010814230D01F
:1035D000607A01093948407861F30410374948702E
:1035E000607AC0F3001090B109212748A73890F8FD
:1035F0006A206B3081546B3890F86A00401C224975
:10360000A73981F86A0083A001F090F911E00A213E
:103610001D48A73890F86A206B3081546B3890F8B9
:103620006A00401C1849A73981F86A0080A001F09F
:103630007DF90D211448A73890F86A206B30815429
:103640006B3890F86A00401C0F49A73981F86A006E
:10365000607A00F0070081F8A600084690F8A610EE
:103660007AA001F063F902200749A7390870002009
:1036700050E600004552523A204E545020697320C3
:10368000656D707479200A00BF01002067697A5067
:10369000726F746F636F6C4D6F64756C655374619A
:1036A000747573204572726F72202C20496C6C65A2
:1036B00067616C20506172616D0A00004E0000204D
:1036C0004F6E426F617264696E673A20536F667421
:1036D0004150206F7220576562206D6F64650A004B
:1036E0004F6E426F617264696E673A204169724C35
:1036F000696E6B206D6F64650A0000004F6E426F4B
:10370000617264696E673A2053746174696F6E20E8
:103710006D6F64650A000000576946692073746123
:103720007475733A20696E2062696E64696E6720F1
:103730006D6F64650A000000576946692073746103
:103740007475733A206F75742062696E64696E6770
:10375000206D6F64650A00005769466920737461C3
:103760007475733A20636F6E6E656374656420725E
:103770006F757465720A0000576946692073746139
:103780007475733A20646973636F6E6E65637465F4
:103790006420726F757465720A000000576946698B
:1037A000207374617475733A20636F6E6E65637411
:1037B0006564206D326D0A00576946692073746133
:1037C0007475733A20646973636F6E6E65637465B4
:1037D00064206D326D0A0000576946692073746178
:1037E0007475733A2061707020636F6E6E656374D8
:1037F0000A00000057694669207374617475733A52
:10380000206E6F2061707020636F6E6E6563740A46
:103810000000000057694669207374617475733A3B
:1038200020696E2074657374206D6F64650A0000F2
:1038300057694669207374617475733A206F7574A3
:103840002074657374206D6F64650A005253534988
:10385000206973202564200A0000000010B52C2088
:10386000F7490860F748C860084600F067FF18B9D4
:10387000F5A001F05BF802E0F8A001F057F8F421A0
:10388000FB4801F021FA10BD30B587B00546002491
:10389000062D7DD2DFE805F003316193C1F001A868
:1038A000FEF72CFF0B208DF80800F14890F831103E
:1038B000D0F83100401CEE4AC2F83100C8B28DF891
:1038C0000900052000F0DBFBADF80600092101A886
:1038D00000F0C2FB8DF80C00092101A8FEF773FE71
:1038E0000446002C04DA2146AFF6844001F01EF8AD
:1038F000092101A8FEF713FFF0E004A8FEF7FEFE81
:1039000009208DF81400DA4890F83110D0F8310011
:10391000401CD74AC2F83100C8B28DF815008DF8A6
:103920001850062000F0ABFBADF812000A2104A8E5
:1039300000F092FB8DF819000A2104A8FEF743FE5F
:103940000446002C04DA2146AFF6E44000F0EEFF16
:103950000A2104A8FEF7E3FEC0E004A8FEF7CEFEAD
:1039600009208DF81400C24890F83110D0F83100C9
:10397000401CBF4AC2F83100C8B28DF815008DF85E
:103980001850062000F07BFBADF812000A2100E081
:10399000A0E004A800F060FB8DF819000A2104A83B
:1039A000FEF711FE0446002C04DA2146AFF648501B
:1039B00000F0BCFF0A2104A8FEF7B1FE8EE001A8CA
:1039C000FEF79CFE13208DF80800A94890F83110EE
:1039D000D0F83100401CA64AC2F83100C8B28DF8B8
:1039E0000900052000F04BFBADF80600092101A8F5
:1039F00000F032FB8DF80C00092101A8FEF7E3FD71
:103A00000446002C04DA2146AFF6A45000F08EFFE5
:103A1000092101A8FEF783FE60E001A8FEF76EFE13
:103A200015208DF80800924890F83110D0F8310038
:103A3000401C8F4AC2F83100C8B28DF80900052039
:103A400000F01DFBADF80600092101A800F004FB01
:103A50008DF80C00092101A8FEF7B5FD0446002CE5
:103A600004DA2146AFF6006000F060FF092101A8EA
:103A7000FEF755FE32E0FFE701A8FEF73FFE2920E2
:103A80008DF808007A4890F83110D0F83100401CC9
:103A9000774AC2F83100C8B28DF80900052000F05D
:103AA000EEFAADF80600092101A800F0D5FA8DF86C
:103AB0000C00092101A8FEF786FD0446002C04DA5B
:103AC0002146AFF65C6000F031FF092101A8FEF746
:103AD00026FE03E067A000F029FF00BF00BF2046DC
:103AE00007B030BD3EB500246846FEF707FE17203C
:103AF0008DF804005E4890F83110D0F83100401C79
:103B00005B4AC2F83100C8B28DF80500052000F00C
:103B1000B6FAADF802000921684600F09DFA8DF86A
:103B2000080009216846FEF74EFD0446002C03DA22
:103B3000214656A000F0FAFE09216846FEF7EFFD87
:103B40003EBD3EB500246846FEF7D8FD21208DF825
:103B50000400474890F83110D0F83100401C444A26
:103B6000C2F83100C8B28DF8050000208DF80800B9
:103B7000062000F084FAADF802000A21684600F041
:103B80006BFA8DF809000A216846FEF71CFD044611
:103B9000002C03DA21463DA000F0C8FE0A21684649
:103BA000FEF7BDFD3EBD70B5044625462CB93FA0CD
:103BB00000F0BCFE4FF0FF3070BD412205F108015E
:103BC0002B48B33001F009F80F21294890F89020D4
:103BD00091308154913890F89000401C244981F82C
:103BE0009000052008700020E6E72DE9F0418EB036
:103BF0000546002600200290019000248046002700
:103C000035B92EA000F092FE601E0EB0BDE8F08126
:103C1000FFF784F902AA1649491C0948FFF763F81F
:103C20000646002E0BD12FA000F080FE104C641C25
:103C300020790F2860D06BDC0E285FD25FE0D8E0DF
:103C40000C0200201C0200207262437265617465E0
:103C50002053756363657373200A000072624372B8
:103C600065617465204661696C64200A000000008B
:103C7000180100204552523A204366674D6F646533
:103C8000206572726F72210A000000004552525B7B
:103C90004E54505D3A207561727420777269746574
:103CA000206572726F72202564200A004E545020E5
:103CB000697320656D707479200A000047697A770E
:103CC00069747348616E646C65204572726F72200E
:103CD0002C20496C6C6567616C20506172616D0AC3
:103CE00000000000476574204F6E65205061636BD3
:103CF0006574210A000000004DE009E070E0DFE893
:103D000000F06F166F1A6F6F42376F6F436F443B4F
:103D1000182851D006DC112846D0142845D0162882
:103D20005ED133E0222851D02A2859D12FE02046F5
:103D3000FFF729F95CE0E279A1798EA000F0F6FDA9
:103D400001A8009007F10900BDF808301A1A8D4843
:103D5000C11903AB4046FEF769FD40B9E37903A9F9
:103D60002046019AFEF7CEFD87A000F0DFFD3FE080
:103D70002046FFF7A7F83BE02046FFF7A3F82046D0
:103D8000FFF7C0FA34E000BF00BF00BF00BF20460D
:103D9000FFF780F82CE02046FFF794F87DA000F0B4
:103DA000C5FDFFF7A1FA23E022E02046FFF772F8F5
:103DB0007DA000F0BBFD1BE02046FFF76BF820461E
:103DC000FFF75AFA80A000F0B1FD11E02046FFF79E
:103DD00061F82046FFF7E7FE81A000F0A7FD07E0AD
:103DE00002212046FFF72BF984A000F09FFD00BFC1
:103DF0000EE016F1020F0BD1624C083C0121204667
:103E0000FFF71DF983A000F091FD6FF00100FCE6C3
:103E10005C4809380078062850D2DFE800F04F03EC
:103E200013232F3F00205749093908700122A4317C
:103E3000A1F14D00FEF72AFB132152484E3000F04D
:103E400043FF3CE000204F49093908700122A631A8
:103E5000A1F13C00FEF71AFB13214A48613000F043
:103E600033FF2CE000204749093908700846D0F894
:103E70002D2017315730FEF709FB20E00020414983
:103E8000093908700C22A731A1F12A00FEF7FEFAC9
:103E900013213C48743000F017FF10E0002039492E
:103EA000093908704122B331A1F12300FEF7EEFA7F
:103EB00041213448873000F007FF00E000BF00BF19
:103EC0002846FEF7D8FD00209FE62DE9F04186B098
:103ED00006460F464FF000086C46B81D85B23EB945
:103EE00052A000F023FD4FF0FF3006B0BDE8F08196
:103EF000FF2004F8010B04F8010B281204F8010B51
:103F000004F8015B052004F8010B1E48093890F8FD
:103F10003110D0F83100401C1A4A093AC2F8310079
:103F200004F8011B002004F8010B04F8010B062023
:103F300004F8010B3A4631460DF1090000F04DFE40
:103F4000291D684600F088F80146E81C0DF80010AD
:103F5000291D6846FEF737FB8046B8F1000F03DAEB
:103F600041463C4800F0E2FC291D6846FEF7D7FBBD
:103F70000020BAE7666C6167202578202578200A42
:103F8000000000002101002041636B446174612046
:103F90003A200A007265706F72743A4D4355207270
:103FA00065626F6F74210A0041636B2050524F4469
:103FB000554354494F4E5F4D4F44452073756363DD
:103FC000657373200A00000041636B204745545F0E
:103FD0005554542073756363657373200A000000A1
:103FE00041636B204745545F4D6F64756C6520736A
:103FF000756363657373200A000000004552523AEE
:1040000020636D6420636F6465206572726F722136
:104010000A0000004552523A20636865636B2073C2
:10402000756D206572726F72210A00005B455252F5
:104030005D2067697A77697473506173737468720D
:104040006F75676844617461204572726F72200AEF
:1040500000000000682C000810B502460024002370
:1040600002B109B9002010BD022303E0D05C204456
:10407000C4B25B1C481E9842F8D82046F3E701B54D
:1040800081B000200090694601AA5078087010782D
:104090004870BDF800000CBD0146080601F47F42DF
:1040A00040EA022001F47F0240EA122040EA116057
:1040B000704710B502460024302A05DB392A03DC9C
:1040C000A2F13000C3B20EE0412A05DB462A03DC30
:1040D000A2F13700C3B206E0612A04DB662A02DCE3
:1040E000A2F15700C3B2302905DB392903DCA1F165
:1040F0003000C4B20EE0412905DB462903DCA1F102
:104100003700C4B206E0612904DB662902DCA1F1B4
:104110005700C4B204EB0310C0B210BD70B5044622
:1041200000250026204600F039FD06460CB9681E21
:1041300070BD002505E0605D302801D00020F7E764
:104140006D1CB542F7D30120F2E72DE9F043034699
:1041500000BF0025002400260027012901D00229E4
:104160000DD1A3F1010C4FF06408BCFBF8F4BCFBCB
:10417000F8F908FB19C501F10C06174609E04FF0E4
:10418000640CB3FBFCF4B3FBFCF80CFB18350E46D7
:10419000174606F1010C4FF01A080CFB08FC4FF013
:1041A0000A08BCFBF8FC05EB950808EB94084FF0F7
:1041B000020909FB1488C444BC44ACF10100002886
:1041C00006DB4FF0070C90FBFCF80CFB180C07E02B
:1041D0004FF0070C90FBFCF80CFB180C0CF1070CD3
:1041E0006046BDE8F08301460A46C81701EB9070AF
:1041F0008010A1EB800070B9642091FBF0F300FB0C
:10420000131030B94FF4C87091FBF0F300FB13109A
:1042100008B9012070470020FCE710B5044620468D
:10422000FFF7E1FF10B14FF4B77010BD40F26D1011
:10423000FBE72DE9F04190B080460E4640F2B275A2
:104240003022694901A800F00DFD344604F5E1442F
:1042500000BF11E02846FFF7E0FF074640F2A32029
:104260007843B4EBC01F06D340F2A3207843A4EBFD
:10427000C0146D1C00E001E0002CEBD100BFA8B21F
:10428000ADF83400002518E0BDF83400FFF7ABFFAF
:1042900008B11D20029001A850F8250040F2A3218A
:1042A0004843B4EBC01F07D301A850F8250048438A
:1042B000A4EBC0146D1C00E001E0002CE4D100BFB1
:1042C0001C200290681CC0B28DF83600012506E063
:1042D0004648844202D3241A6D1C00E001E0002C01
:1042E000F6D100BFE8B28DF837004FF46160B4FB3F
:1042F000F0F0C0B28DF838004FF46160B4FBF0F11B
:1043000000FB11403C21B0FBF1F0C0B28DF8390048
:104310003C20B4FBF0F100FB11408DF83A00CDF8E1
:104320003B600D98C8F800000E98C8F80400BDF86E
:104330003C00A8F808009DF83E0088F80A0010B07C
:10434000BDE8F0812DE9F05F80460E4691460024DD
:104350001CE016F814A06000401C16F800B050468F
:1043600000F0D4FA3038C5B2092D01DDE81FC5B21E
:10437000584600F0CBFA3038C7B2092F01DDF81FDC
:10438000C7B207EB051008F80400641C4C45E0DBDD
:10439000BDE8F09FF0B5034600201EE00E5CF71765
:1043A00006EB17773F1107F130050E5CF71706EBA8
:1043B00017773F11A6EB07173037FCB2392D01DD17
:1043C000EE1DF5B2392C01DDE61DF4B203F81050F4
:1043D000012606EB40069C55401C9042DEDB002681
:1043E00003F81260F0BD0000DC54000880510100A9
:1043F00030B502460B460021002400250AB9481EAC
:1044000030BD002108E0545C581A401E155C55541C
:10441000581A401E1454491CB1EB530FF3D300201B
:10442000EEE710B503460020541AB4FBF3F010BDBC
:1044300010B50346002002FB031010BD2DE9F04724
:1044400004460E46154600273146284600F0D0FFA8
:104450008146214600F00AFE804600F0C9FE07466C
:104460003846BDE8F0872DE9F04704460E4615466C
:104470000027284600F0DCFE8146214600F0ECFED5
:104480008046314600F090FD07463846BDE8F0878B
:10449000024612B102F0070028B9082901D800200D
:1044A00070470120FCE702F00700C0F108008842D5
:1044B00001D30020F4E70120F2E72DE9F04705469B
:1044C000884614461E464FF00009CA4600270023BE
:1044D00014B9581EBDE8F087EB0841462846FFF79F
:1044E000D7FF07463FB9E05C05F0070106FA01F186
:1044F0000843E0541DE0012F1BD1F0B205F0070185
:10450000C1F1080140FA01F905F00700C0F1080106
:10451000FF20084100EA060A581C205C40EA090016
:10452000591C6054E05C05F007010AFA01F10843E8
:10453000E0540020CEE72DE9F04F8FB004460F463F
:1045400090461D460026B246B146B34600200E9066
:10455000B8F1000F00D025B94FF0FF300FB0BDE823
:10456000F08F4FEAD4092A46414601A800F035FBF6
:10457000012D09D9294601A8FFF73AFFB0F1FF3F05
:1045800002D14FF0FF30E9E739462046FFF780FFC0
:104590008246BAF1000F0CD101A810F8090004F00E
:1045A00007010841C7F10802FF21114108400643F5
:1045B00021E0BAF1010F1ED101A909F10100085C47
:1045C00004F00701C1F10801791AC1F10802FF21C5
:1045D000114100EA010B01A810F8090004F00701DD
:1045E00008410E9004F00700C0F108010BFA01F039
:1045F00006430E9806433046B0E72DE9F04F8FB0E2
:1046000005460C4616469946189F4FF0000AD346B9
:1046100000200E908046B9F1000F00D027B94FF06E
:10462000FF300FB0BDE8F08F3A46494601A800F0D0
:10463000D4FA012F09D9394601A8FFF7D9FEB0F104
:10464000FF3F02D14FF0FF30EBE731462046FFF746
:104650001FFF8246BAF1000F0CD101A8405D04F0A3
:1046600007010841C6F10802FF211141084040EA54
:10467000080821E0BAF1010F1ED101A9681C085CED
:1046800004F00701C1F10801711AC1F10802FF210C
:10469000114100EA010B01A8405D04F00701084147
:1046A0000E9004F00700C0F108010BFA01F040EA97
:1046B00008080E9848EA00084046B2E72DE9F0479E
:1046C00004460D461746089E4FF00009CA46C846E4
:1046D0001BB94FF0FF30BDE8F08739462846FFF799
:1046E000D7FE8046B8F1000F07D1185D05F007012D
:1046F00006FA01F1084318551EE0B8F1010F1BD16D
:10470000F0B205F00701C1F1080140FA01F905F026
:104710000700C0F10801FF20084100EA060A601CFA
:10472000185C40EA0900611C5854185D05F0070147
:104730000AFA01F1084318550020CCE7014611B9E7
:104740004FF0FF307047C8684860C8688860002034
:10475000F8E7014611B94FF0FF3070470020C860FC
:1047600048608860086000BFF7E7014611B94FF064
:10477000FF3070470868FCE700B5024612B94FF0F9
:10478000FF3000BD50689168884201D10020F8E7F1
:1047900050689168884203D290685168401AF0E7E7
:1047A0001046FFF7E2FF51689368C91A401AE8E71C
:1047B00030B5044614B94FF0FF3030BD2046FFF746
:1047C000D4FF05462046FFF7D7FF281AF5E72DE965
:1047D000F04104460F461646002514B9681EBDE890
:1047E000F08117B94FF0FF30F9E76068A16888429F
:1047F00014D22046FFF7C0FFB04201D9304602E094
:104800002046FFF7B9FF054661682A46384600F0A2
:10481000E4F96068284460602846E0E72046FFF736
:10482000A4FF6168E268891A401AB0420AD9354685
:1048300061682A46384600F0D0F960682844606014
:104840002846CCE72046FFF790FF6168E268891AA6
:10485000451A61682A46384600F0BFF9E068606092
:10486000721B79192046FFF7B2FF05442846B6E7C8
:104870002DE9F04104460F461546002604B11FB944
:104880004FF0FF30BDE8F0812046FFF791FFA842CE
:1048900002D86FF00100F5E76068A16888422AD865
:1048A0002046FFF762FFA168E268891A461AB542FE
:1048B00013D8A0682A46394600F08FF9A06828442A
:1048C000A0602046FFF751FFE1680844A1688842D4
:1048D00001D1E068A0602846D4E7A0683246394696
:1048E00000F07BF9E068A060AA1BB9192046FFF729
:1048F000BFFF3044C6E7A0682A46394600F06DF98C
:10490000A0682844A0602846BCE7704710B504465C
:1049100000F000FA0068005D000704D5DF2C02D02B
:10492000A4F1200010BD204610BD00000FB40449C2
:1049300010B503AA029800F04FFA10BC5DF814FB02
:104940001C00002070B5044685690068C10601D5C9
:10495000302600E02026C00707D070BDD4E9012131
:1049600030469047206A401C20626D1EF6D570BD0F
:1049700070B5044685690078C00707D170BDD4E9D9
:10498000012120209047206A401C20626D1EF6D530
:1049900070BD00002DE9F04106460024106875291D
:1049A000314616A510D0AFF30080002802DA40424D
:1049B00013A507E031688A0701D512A502E049076F
:1049C00004D511A5012401E0AFF3008000210A22E3
:1049D00006F1240709E0B0FBF2FCB0FBF2F302FBA6
:1049E0001C00303078541846491C0028F3D1234667
:1049F0002A463046BDE8F04100F094B900000000BE
:104A00002D0000002B0000002000000070B50446BF
:104A10000D4621461068AFF300802188090502D5B4
:104A20000F4A7A4402E00E4A7A440E32002104F121
:104A3000240305E000F00F060009965D5E54491C52
:104A40000028F7D120780023000704D5702D02D06C
:104A500009B1022311322046BDE8704000F062B96E
:104A6000E60A00002DE9F05F894604464FF0000A8F
:104A7000DFF824B1FB44C0F820A02046E168884755
:104A800000287DD0252806D0D4E901219047206A4E
:104A9000401C2062F1E700255F462046E168884718
:104AA0002028064607DB312E05D2B81910F8200C55
:104AB00008B10543F1E7A80701D525F00405C4F8BE
:104AC0001CA00027C4F818A02A2E09D0304600F0F8
:104AD0004DFA38B304EB8708303EC8F8186019E087
:104AE00059F8041B204604EB87029161E16888476E
:104AF000012F064618D1E069002820DA25F02005AC
:104B00001DE0D8F8180000EB800006EB40003038BC
:104B1000C8F818002046E1688847064600F026FAE3
:104B20000028EED1012F0AD02E2E08D12046E168B0
:104B300088477F1C0646022F45F02005C4DBA0698C
:104B4000002803DA404245F00105A061E80701D0E2
:104B500025F01005A6B1A6F14100192802D820368B
:104B600045F400654A463146204625604D46FBF730
:104B700019FB60B1012807D0ED1D25F0070000E00A
:104B800007E000F1080978E705F1040975E7304608
:104B90007AE7206ABDE8F09FBC0A000010B5431C0C
:104BA00002E010F8011B71B18107FAD14FF0013218
:104BB00002C88C1A8C4314EAC211F9D0C01A0A0632
:104BC00003D0C01E10BDC01A10BD0A0401D0801E43
:104BD00010BD0902FCD0401E10BD032A40F23080F7
:104BE00010F0030C00F0158011F8013BBCF1020F2E
:104BF000624498BF11F801CB00F8013B38BF11F8AF
:104C0000013BA2F1040298BF00F801CB38BF00F8C5
:104C1000013B11F0030300F02580083AC0F0088042
:104C200051F8043B083A51F804CBA0E80810F5E726
:104C3000121D5CBF51F8043B40F8043BAFF3008009
:104C4000D20724BF11F8013B11F801CB48BF11F87E
:104C5000012B24BF00F8013B00F801CB48BF00F84E
:104C6000012B704710B5203AC0F00B80B1E8185006
:104C7000203AA0E81850B1E81850A0E81850BFF446
:104C8000F5AF5FEA027C24BFB1E81850A0E81850E5
:104C900044BF18C918C0BDE810405FEA827C24BF39
:104CA00051F8043B40F8043B08BF7047D20728BFC7
:104CB00031F8023B48BF11F8012B28BF20F8023B16
:104CC00048BF00F8012B70474FF000020429C0F0E4
:104CD000128010F0030C00F09380CCF1040CBCF1B6
:104CE000020F18BF00F8012BA8BF20F8022BA1EB80
:104CF0000C0100F085B85FEAC17C24BF00F8012BED
:104D000000F8012B48BF00F8012B7047704770472F
:104D10007047704710B500F099F8001D10BD00BF36
:104D20005D0200002DE9F0470D4699469246044683
:104D300000F124080168880604D5E06921F010011B
:104D4000216000E00120A84201DD471B00E00027B0
:104D5000A1697A1902EB0900081AA0612078C0063F
:104D600002D42046FFF7EEFD002608E0D4E9012139
:104D70001AF806009047206A401C761C20624E45B7
:104D8000F4DB2078C0060AD52046FFF7DBFD06E0FD
:104D9000D4E9012130209047206A401C2062381E4F
:104DA000A7F10107F4DC07E0D4E9012118F80500B8
:104DB0009047206A401C2062281EA5F10105F3DC03
:104DC0002046FFF7D5FD2078000602D50220BDE879
:104DD000F0870120FBE70000074B70B50D467B44D0
:104DE00000F03DF80446284600F04CF810B14FF0B2
:104DF000FF3070BD204670BD2FBBFFFF4FF000029B
:104E000000B5134694469646203922BFA0E80C50C0
:104E1000A0E80C50B1F12001BFF4F7AF090728BF9B
:104E2000A0E80C5048BF0CC05DF804EB890028BF17
:104E300040F8042B08BF704748BF20F8022B11F040
:104E4000804F18BF00F8012B7047000000487047E2
:104E50006802002001694A1C02610878704700B5A9
:104E60008FB0CDE901310021059105497944CDE9A3
:104E7000031011466846FFF7F5FD0FB000BD0000B6
:104E8000E5FFFFFF007B00F080007047004870479F
:104E9000480200207546FFF7F9FFAE460500694657
:104EA000534620F00700854618B020B5FBF7DCFD1F
:104EB000BDE820404FF000064FF000074FF000081B
:104EC0004FF0000B21F00701AC46ACE8C009ACE89C
:104ED000C009ACE8C009ACE8C0098D46704704467B
:104EE000AFF300802046FBF77BF900004FF0013C58
:104EF00050F8042B51F8043B9A4221D1A2EB0C0349
:104F0000934313EACC1317D150F8042B51F8043B08
:104F10009A4215D1A2EB0C03934313EACC130BD1A5
:104F200050F8042B51F8043B9A4209D1A2EB0C0330
:104F3000934313EACC13DBD04FF00000704700BF5F
:104F4000D01A01BAB1FA81F101F0180122FA01F088
:104F5000CB40C1F12001DBB2C0B2C01A2CFA01F380
:104F6000D11A914311EAC311E6D1704730380A28AB
:104F700001D20120704700207047000010B50029C1
:104F80000AD00878002807D005487844FFF7AEFF1C
:104F9000002801D0002010BD0248784410BD000058
:104FA000DE050000D605000090EA010F48BF81F041
:104FB000004100F12482421A3CBF801A89184FEA4E
:104FC000D0524FF07F4C1CEA410FA2EBD15318BFD7
:104FD0009CEA026F00F03B804FF0004C4CEA00204E
:104FE0004CEA012121FA03FC10EB0C0C1ED202F159
:104FF000FF325FEA1C2040EBC25038BF70471CF004
:105000007F0F4FEA400C18BFBCF17F4F38BF70478D
:10501000C3F12003994008BF20F00100BCF17F4F8D
:1050200038BF7047A0F1C04000F0DDB94FEA3C0046
:10503000000A40EBC25028BF1CF0FF0F4FEA400CA3
:10504000E6D018BFBCF17F4F38BF7047EAE79CEA53
:10505000026F05D010EA5C0F08BF00F000407047F7
:1050600010B500F07AF900BF64FBBE3E4FF47F0C30
:105070001CEAD0121EBF1CEAD11392EA0C0F93EA6D
:105080000C0F00F0858090EA010F48BF42F4807257
:1050900040F4000C41F400002CF07F4120F07F40F0
:1050A00000B58142A2EB03020FF2081CACEB504E9C
:1050B000C0F100009EF800E04FEA4E0E00FB0EFC2F
:1050C00038BF49004FEA2C1C02F5FA020CFB0EF324
:1050D0004FEACE1E4FEA112C4FEAC1210EEB635E60
:1050E00042EB22420EFB0CFC4FEA1C5300FB031167
:1050F0004FEA112C4FEA01310EFB0CFC4FEADC4C5D
:1051000000FB0C11C14228BF09184CEB03335DF8BA
:1051100004EB10EB410143EBC250B2F57C0F38BFFA
:10512000704729D512F0F00F1CBF00F1C04000F00D
:1051300000407047008182838485868788898B8CB4
:105140008D8E8F919293959697999A9C9D9FA0A2F0
:10515000A3A5A7A8AAACAEB0B2B3B5B7B9BCBEC040
:10516000C2C5C7C9CCCED1D4D7D9DCDFE2E6E9ECE1
:10517000F0F3F7FAFE0000004FEA400C0CF1807CDF
:10518000BCF17E4F28BF7047B0F1C04000F02BB992
:1051900090EA010F0CEAD11348BF42F480726245D5
:1051A00038BF634507D213F47F0F16D080EA0100A1
:1051B00000F00040704710B500F0CFF8097EFC3ECB
:1051C00000F005B880EA010000F00040704780EA76
:1051D000010000F0004000F006B912F47F0F04BF98
:1051E0000248704780EA010000F0FDB80000C07F6F
:1051F000C10DD1F19E0206DB4FEA002343F00043CC
:1052000023FA02F07047004207D54FEA4001B1F19E
:10521000FE4F02D24FF00000704710B500F09DF82D
:1052200049922480002070476FEA200070470000F8
:10523000B0FA80F310FA03F2C3F19D030AD0D90546
:1052400001EB1220530638BF704700F1010008BF80
:1052500020F00100704700004FF47F0C1CEAD012D0
:105260001EBF1CEAD11392EA0C0F93EA0C0F00F058
:10527000478090EA010F48BF42F480724FF0004C23
:105280004CEA00204CEA012102EB0302A0FB0113CF
:10529000A2F50002002918BF43F001035B0028BFFC
:1052A0004FEA330342EB22425FEA132C4CEBC2502D
:1052B0002EBFBCEB436FB2F57C0F70474FEA036C17
:1052C000BCF1004F08BF20F00100B2F57C0F38BFE1
:1052D00070470BD582F0FF0212F5803FC8BF7047C0
:1052E00000F1C040D8BF00F00040704700F5000C4E
:1052F0005FEA4C0C48BF7047B0F1C04000F073B893
:1053000090EA010F0CEAD11348BF42F48072624563
:1053100038BF634504D280EA010000F000407047C6
:1053200010B500F01AF800BF8900013E00F007B880
:1053300000F009B85FEA410C5FEA1C6C08D080EA13
:10534000010000F050B85FEA400C5FEA1C6CF6D137
:105350004FF00040A0F5800070470EF1020E2EF0D5
:10536000030E5EF8044B244204D44FEA4102B2F12A
:105370007F4F11D84FEA4003B3F17F4F0CD80ED1C5
:105380004FEAD07CB2F17F4F0CEB4C0C0CF1020CCD
:1053900008BF4CEBD17C04E04FF0080C01E04FEA71
:1053A000D17C0CEB4C0324FA03F404F00704B4F1B1
:1053B000040C06D20EEB840CBDE810404CF0010C3E
:1053C0006047DFE80CF0070802024FF00040A0F54C
:1053D000800010BD0846420018BFD2F1807288BF1D
:1053E00000F0004010BDFF2141EAD050C0057047D9
:1053F00090EA010F48BF81F000413FF5DCAD421A51
:1054000004D882F00042A0EB020011444FEAD052CF
:105410004FF07F4C1CEA410FA2EBD15318BF9CEA1E
:10542000026F4AD04FF0004C4CEA00204CEA0121B8
:1054300021FA03FCB0EB0C0C0FD412F0FE0F36D0A7
:105440005FEA4C001DD5001240EBC25038BF7047D8
:105450001CF03F0F18BF70470BE0A2F101025FEA9A
:105460001C2040EBC25038BF70471CF07F0F18BFA4
:105470007047C3F12003994014BF401E20F0010083
:10548000704780084FEA122308BF7047B0FA80FCCB
:10549000A2EB0C02CCF1280C60FA0CF093EA122F6C
:1054A00004BF00EBC25070474FEAC3707047130A45
:1054B0005FEADC1008BF7047F6E79CEA026F04D091
:1054C00010EA5C0F08BF0020704710B5FFF745FFDA
:1054D00040DFF63E81F00040704700001F000000F2
:1054E0001C0000001F0000001E0000001F00000044
:1054F0001E0000001F0000001F0000001E00000032
:105500001F0000001E0000001F0000003031323379
:1055100034353637383941424344454640305800E7
:105520003031323334353637383961626364656619
:105530004030780004000008000000000000000275
:105540000001000010000000785600080000002054
:10555000500000006C010008C856000850000020F0
:1055600058140000880100081001000043000000EA
:10557000F8FFFFFF00404040404040404040414174
:105580004141414040404040404040404040404018
:1055900040404040400502020202020202020202B2
:1055A00002020202022020202020202020202002AF
:1055B000020202020202909090909090101010103F
:1055C00010101010101010101010101010101010DB
:1055D000020202020202888888888888080808086F
:1055E000080808080808080808080808080808083B
:1055F0000202020240000000000000000000000063
:10560000000000000000000000000000000000009A
:10561000000000000000000000000000000000008A
:10562000000000000000000000000000000000007A
:10563000000000000000000000000000000000006A
:10564000000000000000000000000000000000005A
:10565000000000000000000000000000000000004A
:10566000000000000000000000000000000000003A
:10567000000000000000000000A24A04000000003A
:1056800000000000010203040607080901000000F1
:105690000000000000000000000000000000010207
:1056A00003040102030406070809020406080000B7
:1056B00000000000000000000000000000000000EA
:0856C0000000000000000000E2
:0400000508000131BD
:00000001FF
